:020000040800F2
:1000000000500020A14C0008F5480008F7480008FF
:10001000F9480008FB480008FD48000800000000FF
:10002000000000000000000000000000FF48000881
:1000300001490008000000000349000805490008C4
:10004000E94C0008E94C0008E94C0008E94C0008BC
:10005000E94C0008E94C0008E94C0008E94C0008AC
:10006000E94C0008E94C0008E94C0008E94C00089C
:10007000E94C0008E94C0008E94C0008E94C00088C
:10008000E94C0008E94C0008E94C0008E94C00087C
:10009000E94C0008E94C0008E94C0008E94C00086C
:1000A000E94C0008E94C0008E94C0008E94C00085C
:1000B000E94C0008E94C0008E94C0008E94C00084C
:1000C000E94C0008E94C0008E94C0008E94C00083C
:1000D000E94C0008E94C0008E94C0008E94C00082C
:1000E000E94C0008E94C0008E94C00080000000059
:1000F0000000000000000000000000000000000000
:0C01000000000000000000005FF808F1A3
:1001100010B5054C237833B9044B13B10448AFF341
:1001200000800123237010BDF009002000000000B2
:1001300050CC000808B5034B1BB103490348AFF38B
:10014000008008BD00000000F409002050CC000829
:1001500081F0004102E000BF83F0004330B54FEA78
:1001600041044FEA430594EA050F08BF90EA020FE5
:100170001FBF54EA000C55EA020C7FEA645C7FEA78
:10018000655C00F0E2804FEA5454D4EB5555B8BF9B
:100190006D420CDD2C4480EA020281EA030382EA0C
:1001A000000083EA010180EA020281EA0303362D9E
:1001B00088BF30BD11F0004F4FEA01314FF4801C71
:1001C0004CEA113102D0404261EB410113F0004F83
:1001D0004FEA03334CEA133302D0524263EB43033A
:1001E00094EA050F00F0A780A4F10104D5F1200ED8
:1001F0000DDB02FA0EFC22FA05F2801841F1000133
:1002000003FA0EF2801843FA05F359410EE0A5F106
:1002100020050EF1200E012A03FA0EFC28BF4CF037
:10022000020C43FA05F3C01851EBE37101F00045ED
:1002300007D54FF0000EDCF1000C7EEB00006EEBFA
:100240000101B1F5801F1BD3B1F5001F0CD3490884
:100250005FEA30004FEA3C0C04F101044FEA4452DB
:1002600012F5800F80F09A80BCF1004F08BF5FEA62
:10027000500C50F1000041EB045141EA050130BD42
:100280005FEA4C0C404141EB0101013C28BFB1F554
:10029000801FE9D291F0000F04BF01460020B1FA9F
:1002A00081F308BF2033A3F10B03B3F120020CDA72
:1002B0000C3208DD02F1140CC2F10C0201FA0CF050
:1002C00021FA02F10CE002F11402D8BFC2F1200CB5
:1002D00001FA02F120FA0CFCDCBF41EA0C0190406B
:1002E000E41AA2BF01EB0451294330BD6FEA0404B4
:1002F0001F3C1CDA0C340EDC04F11404C4F120029F
:1003000020FA04F001FA02F340EA030021FA04F3B0
:1003100045EA030130BDC4F10C04C4F1200220FA07
:1003200002F001FA04F340EA0300294630BD21FA45
:1003300004F0294630BD94F0000F83F4801306BF0B
:1003400081F480110134013D4EE77FEA645C18BFFF
:100350007FEA655C29D094EA050F08BF90EA020F96
:1003600005D054EA000C04BF1946104630BD91EA8E
:10037000030F1EBF0021002030BD5FEA545C05D191
:100380004000494128BF41F0004130BD14F58004D0
:100390003CBF01F5801130BD01F0004545F0FE4144
:1003A00041F470014FF0000030BD7FEA645C1ABF79
:1003B000194610467FEA655C1CBF0B46024650EAB0
:1003C000013406BF52EA033591EA030F41F40021DC
:1003D00030BD00BF90F0000F04BF0021704730B562
:1003E0004FF4806404F132044FF000054FF0000137
:1003F00050E700BF90F0000F04BF0021704730B5F8
:100400004FF4806404F1320410F0004548BF4042CC
:100410004FF000013EE700BF42004FEAE2014FEA21
:1004200031014FEA02701FBF12F07F4393F07F4FFC
:1004300081F06051704732F07F4208BF704793F0FF
:100440007F4F04BF41F40021704730B54FF4607412
:1004500001F0004521F000411CE700BF50EA010215
:1004600008BF704730B54FF000050AE050EA0102BE
:1004700008BF704730B511F0004502D5404261EB2E
:1004800041014FF4806404F132045FEA915C3FF46F
:10049000D8AE4FF003025FEADC0C18BF03325FEA0C
:1004A000DC0C18BF033202EBDC02C2F1200300FABD
:1004B00003FC20FA02F001FA03FE40EA0E0021FAE2
:1004C00002F11444BDE600BF70B54FF0FF0C4CF4D0
:1004D000E06C1CEA11541DBF1CEA135594EA0C0F82
:1004E00095EA0C0F00F0DEF82C4481EA030621EABD
:1004F0004C5123EA4C5350EA013518BF52EA0335F8
:1005000041F4801143F4801338D0A0FB02CE4FF0A9
:100510000005E1FB02E506F00042E0FB03E54FF0D9
:100520000006E1FB03569CF0000F18BF4EF0010ED1
:10053000A4F1FF04B6F5007F64F5407404D25FEACD
:100540004E0E6D4146EB060642EAC62141EA555180
:100550004FEAC52040EA5E504FEACE2EB4F1FD0CC2
:1005600088BFBCF5E06F1ED8BEF1004F08BF5FEA40
:10057000500E50F1000041EB045170BD06F00046F2
:1005800046EA010140EA020081EA0301B4EB5C049F
:10059000C2BFD4EB0C0541EA045170BD41F4801197
:1005A0004FF0000E013C00F3AB8014F1360FDEBFBC
:1005B000002001F0004170BDC4F10004203C35DA98
:1005C0000C341BDC04F11404C4F1200500FA05F31B
:1005D00020FA04F001FA05F240EA020001F00042BC
:1005E00021F0004110EBD37021FA04F642EB060132
:1005F0005EEA430E08BF20EAD37070BDC4F10C045C
:10060000C4F1200500FA04F320FA05F001FA04F21F
:1006100040EA020001F0004110EBD37041F100010B
:100620005EEA430E08BF20EAD37070BDC4F1200516
:1006300000FA05F24EEA020E20FA04F301FA05F27E
:1006400043EA020321FA04F001F0004121FA04F226
:1006500020EA020000EBD3705EEA430E08BF20EAF6
:10066000D37070BD94F0000F0FD101F00046400030
:1006700041EB010111F4801F08BF013CF7D041EAB2
:10068000060195F0000F18BF704703F000465200B6
:1006900043EB030313F4801F08BF013DF7D043EA87
:1006A0000603704794EA0C0F0CEA135518BF95EA3D
:1006B0000C0F0CD050EA410618BF52EA4306D1D1C4
:1006C00081EA030101F000414FF0000070BD50EAE3
:1006D000410606BF1046194652EA430619D094EA6D
:1006E0000C0F02D150EA013613D195EA0C0F05D157
:1006F00052EA03361CBF104619460AD181EA0301AB
:1007000001F0004141F0FE4141F470014FF0000062
:1007100070BD41F0FE4141F4780170BD70B54FF0FD
:10072000FF0C4CF4E06C1CEA11541DBF1CEA13557D
:1007300094EA0C0F95EA0C0F00F0A7F8A4EB05045F
:1007400081EA030E52EA03354FEA013100F0888056
:100750004FEA03334FF0805545EA131343EA12631F
:100760004FEA022245EA111545EA10654FEA0026D4
:100770000EF000419D4208BF964244F1FD0404F58D
:10078000407402D25B084FEA3202B61A65EB0305E9
:100790005B084FEA32024FF480104FF4002CB6EBA6
:1007A000020E75EB030E22BFB61A754640EA0C0026
:1007B0005B084FEA3202B6EB020E75EB030E22BF66
:1007C000B61A754640EA5C005B084FEA3202B6EBA7
:1007D000020E75EB030E22BFB61A754640EA9C0066
:1007E0005B084FEA3202B6EB020E75EB030E22BF36
:1007F000B61A754640EADC0055EA060E18D04FEAF4
:10080000051545EA16754FEA06164FEAC30343EA93
:1008100052734FEAC2025FEA1C1CC0D111F4801F60
:100820000BD141EA00014FF000004FF0004CB6E759
:1008300011F4801F04BF01430020B4F1FD0C88BFF8
:10084000BCF5E06F3FF6AFAEB5EB030C04BFB6EB03
:10085000020C5FEA500C50F1000041EB045170BDF6
:100860000EF0004E4EEA113114EB5C04C2BFD4EB23
:100870000C0541EA045170BD41F480114FF0000EA7
:10088000013C90E645EA060E8DE60CEA135594EA23
:100890000C0F08BF95EA0C0F3FF43BAF94EA0C0F26
:1008A0000AD150EA01347FF434AF95EA0C0F7FF49B
:1008B00025AF104619462CE795EA0C0F06D152EAEF
:1008C00003353FF4FDAE1046194622E750EA4106D3
:1008D00018BF52EA43067FF4C5AE50EA41047FF4E4
:1008E0000DAF52EA43057FF4EBAE12E74FEA410247
:1008F000B2F1E04324BFB3F5001CDCF1FE5C0DD97E
:1009000001F0004C4FEAC0024CEA5070B2F1004FC7
:1009100040EB830008BF20F00100704711F0804FCA
:1009200021D113F13872BCBF01F00040704741F48F
:1009300080114FEA5252C2F11802C2F1200C10FA93
:100940000CF320FA02F018BF40F001004FEAC12377
:100950004FEAD32303FA0CFC40EA0C0023FA02F31B
:100960004FEA4303CCE77FEA625307D150EA0133F1
:100970001EBF4FF0FE4040F44000704701F00040C1
:1009800040F0FE4040F40000704700BF80F000409F
:1009900002E000BF81F0004142001FBF5FEA410357
:1009A00092EA030F7FEA226C7FEA236C6AD04FEA57
:1009B0001262D2EB1363C1BFD2184140484041409C
:1009C000B8BF5B42192B88BF704710F0004F40F44E
:1009D000000020F07F4018BF404211F0004F41F46A
:1009E000000121F07F4118BF494292EA030F3FD036
:1009F000A2F1010241FA03FC10EB0C00C3F1200349
:100A000001FA03F100F0004302D5494260EB4000D7
:100A1000B0F5000F13D3B0F1807F06D340084FEA42
:100A2000310102F10102FE2A51D2B1F1004F40EB37
:100A3000C25008BF20F0010040EA0300704749009F
:100A400040EB0000013A28BFB0F5000FEDD2B0FA3C
:100A500080FCACF1080CB2EB0C0200FA0CF0AABF5F
:100A600000EBC25052421843BCBFD04018437047FD
:100A700092F0000F81F4000106BF80F40000013203
:100A8000013BB5E74FEA41037FEA226C18BF7FEADA
:100A9000236C21D092EA030F04D092F0000F08BF1C
:100AA0000846704790EA010F1CBF0020704712F003
:100AB0007F4F04D1400028BF40F00040704712F142
:100AC00000723CBF00F50000704700F0004343F0A7
:100AD000FE4040F4000070477FEA226216BF0846DD
:100AE0007FEA23630146420206BF5FEA412390EAA0
:100AF000010F40F4800070474FF0000304E000BF96
:100B000010F0004348BF40425FEA000C08BF704746
:100B100043F0964301464FF000001CE050EA01020A
:100B200008BF70474FF000030AE000BF50EA01021F
:100B300008BF704711F0004302D5404261EB41010C
:100B40005FEA010C02BF84460146002043F0B64331
:100B500008BFA3F18053A3F50003BCFA8CF2083A56
:100B6000A3EBC25310DB01FA02FC634400FA02FC5F
:100B7000C2F12002BCF1004F20FA02F243EB020066
:100B800008BF20F00100704702F1200201FA02FCC8
:100B9000C2F1200250EA4C0021FA02F243EB0200BB
:100BA00008BF20EADC7070474FF0FF0C1CEAD052FF
:100BB0001EBF1CEAD15392EA0C0F93EA0C0F6FD0C0
:100BC0001A4480EA010C400218BF5FEA41211ED09E
:100BD0004FF0006343EA501043EA5111A0FB01318A
:100BE0000CF00040B1F5000F3EBF490041EAD3715F
:100BF0005B0040EA010062F17F02FD2A1DD8B3F1DB
:100C0000004F40EBC25008BF20F00100704790F049
:100C1000000F0CF0004C08BF49024CEA502040EA9B
:100C200051207F3AC2BFD2F1FF0340EAC250704761
:100C300040F400004FF00003013A5DDC12F1190F9F
:100C4000DCBF00F000407047C2F10002410021FA11
:100C500002F1C2F1200200FA02FC5FEA310040F129
:100C6000000053EA4C0308BF20EADC70704792F0A2
:100C7000000F00F0004C02BF400010F4000F013ADA
:100C8000F9D040EA0C0093F0000F01F0004C02BFD5
:100C9000490011F4000F013BF9D041EA0C018FE744
:100CA0000CEAD15392EA0C0F18BF93EA0C0F0AD04A
:100CB00030F0004C18BF31F0004CD8D180EA010070
:100CC00000F00040704790F0000F17BF90F0004F09
:100CD000084691F0000F91F0004F14D092EA0C0FEB
:100CE00001D142020FD193EA0C0F03D14B0218BF7E
:100CF000084608D180EA010000F0004040F0FE40C4
:100D000040F40000704740F0FE4040F4400070475F
:100D10004FF0FF0C1CEAD0521EBF1CEAD15392EADE
:100D20000C0F93EA0C0F69D0A2EB030280EA010CCE
:100D300049024FEA402037D04FF0805343EA111167
:100D400043EA10130CF000408B4238BF5B0042F1C5
:100D50007D024FF4000C8B4224BF5B1A40EA0C006A
:100D6000B3EB510F24BFA3EB510340EA5C00B3EB9C
:100D7000910F24BFA3EB910340EA9C00B3EBD10F8A
:100D800024BFA3EBD10340EADC001B0118BF5FEADC
:100D90001C1CE0D1FD2A3FF650AF8B4240EBC25005
:100DA00008BF20F0010070470CF0004C4CEA5020C6
:100DB0007F32C2BFD2F1FF0340EAC250704740F415
:100DC00000004FF00003013A37E792F0000F00F007
:100DD000004C02BF400010F4000F013AF9D040EA85
:100DE0000C0093F0000F01F0004C02BF490011F419
:100DF000000F013BF9D041EA0C0195E70CEAD15311
:100E000092EA0C0F08D142027FF47DAF93EA0C0FF7
:100E10007FF470AF084676E793EA0C0F04D14B02DB
:100E20003FF44CAF08466EE730F0004C18BF31F08D
:100E3000004CCAD130F000427FF45CAF31F0004387
:100E40007FF43CAF5FE700BF4FF0FF3C06E000BF20
:100E50004FF0010C02E000BF4FF0010C4DF804CD43
:100E60004FEA40024FEA41037FEA226C18BF7FEA53
:100E7000236C11D001B052EA530C18BF90EA010F55
:100E800058BFB2EB030088BFC81738BF6FEAE170E4
:100E900018BF40F0010070477FEA226C02D15FEA80
:100EA000402C05D17FEA236CE4D15FEA412CE1D0EC
:100EB0005DF8040B704700BF844608466146FFE7B3
:100EC0000FB5FFF7C9FF002848BF10F1000F0FBD95
:100ED0004DF808EDFFF7F4FF0CBF012000205DF88E
:100EE00008FB00BF4DF808EDFFF7EAFF34BF012013
:100EF00000205DF808FB00BF4DF808EDFFF7E0FFAC
:100F000094BF012000205DF808FB00BF4DF808EDFC
:100F1000FFF7D2FF94BF012000205DF808FB00BF5F
:100F20004DF808EDFFF7C8FF34BF012000205DF841
:100F300008FB00BF4FEA4002B2F1FE4F0FD34FF063
:100F40009E03B3EB12620DD94FEA002343F0004336
:100F500010F0004F23FA02F018BF404270474FF0E4
:100F60000000704712F1610F01D1420205D110F06B
:100F7000004008BF6FF0004070474FF0000070471E
:100F800042000ED2B2F1FE4F0BD34FF09E03B3EBF3
:100F9000126209D44FEA002343F0004323FA02F01F
:100FA00070474FF00000704712F1610F01D142020B
:100FB00002D14FF0FF3070474FF00000704700BF84
:100FC0007BB972B90029BEBF00204FF0004106E096
:100FD00008BF00281CBF6FF000414FF0FF3000F049
:100FE000A9B9ADF1080C6DE904CE002909DB002B8D
:100FF0001ADB00F035F8DDF804E0DDE9022304B087
:101000007047404261EB4101002B1BDB00F028F8E8
:10101000DDF804E0DDE9022304B0404261EB410168
:10102000524263EB43037047524263EB430300F0C9
:1010300017F8DDF804E0DDE9022304B0404261EB7B
:1010400041017047524263EB430300F009F8DDF8B9
:1010500004E0DDE9022304B0524263EB430370472E
:101060002DE9F047089E0D4604468846002B4DD1D9
:101070008A42944668D9B2FA82F252B101FA02F376
:10108000C2F1200120FA01F10CFA02FC41EA030846
:1010900094404FEA1C41B8FBF1F71FFA8CFE01FBAC
:1010A000178807FB0EF0230C43EA084398420AD93D
:1010B0001CEB030307F1FF3580F01E81984240F2DC
:1010C0001B81023F63441B1AB3FBF1F001FB103399
:1010D00000FB0EFEA4B244EA0344A6450AD91CEB69
:1010E000040400F1FF3380F00981A64540F2068137
:1010F000644402380021A4EB0E0440EA07401EB10C
:101100000023D440C6E90043BDE8F0878B4208D9EC
:10111000002E00F0EE800021C6E900050846BDE87B
:10112000F087B3FA83F100294AD1AB4202D382425D
:1011300000F2FC80841A65EB030301209846002E20
:10114000E2D0C6E90048DFE702B9FFDEB2FA82F278
:10115000002A40F09180A1EB0C0001214FEA1C47CE
:101160001FFA8CFEB0FBF7F307FB1300250C45EAD2
:1011700000450EFB03F0A84208D91CEB050503F15E
:10118000FF3802D2A84200F2CE8043462D1AB5FBAA
:10119000F7F007FB10550EFB00FEA4B244EA05442D
:1011A000A64508D91CEB040400F1FF3502D2A64580
:1011B00000F2B6802846A4EB0E0440EA03409EE706
:1011C000C1F120078B4022FA07FC4CEA030C25FAF8
:1011D00007FA4FEA1C49BAFBF9F820FA07F309FBB2
:1011E00018AA8D401FFA8CFE1D4300FA01F308FB7C
:1011F0000EF02C0C44EA0A44A04202FA01F20BD988
:101200001CEB040408F1FF3A80F08880A04240F211
:101210008580A8F102086444241AB4FBF9F009FBA4
:10122000104400FB0EFEADB245EA0444A64508D9C1
:101230001CEB040400F1FF356CD2A6456AD90238D4
:10124000644440EA0840A0FB0295A4EB0E04AC42C3
:10125000C846AE4656D353D0002E69D0B3EB080231
:1012600064EB0E0422FA01F304FA07F71F43CC40A3
:10127000C6E90074002147E70CFA02FCC2F1200124
:1012800025FA01F34FEA1C4720FA01F195400D437E
:10129000B3FBF7F107FB11331FFA8CFE280C40EA71
:1012A000034001FB0EF3834204FA02F408D91CEB5D
:1012B000000001F1FF382FD283422DD9023960445A
:1012C000C01AB0FBF7F307FB1300ADB245EA0045C7
:1012D00003FB0EF0A84208D91CEB050503F1FF380B
:1012E00016D2A84214D9023B6544281A43EA0141A8
:1012F00038E73146304607E72F46E4E61846F9E678
:101300004B45A9D2B9EB020865EB0C0E0138A3E7F7
:101310004346EAE7284694E74146D1E7D0467BE7D3
:101320006444023847E7023B65442FE7084606E776
:101330003146E9E6704700BF844641EA000313F0F6
:10134000030349D1403A23D30B6803604B684360E1
:101350008B688360CB68C3600B6903614B69436131
:101360008B698361CB69C3610B6A03624B6A436219
:101370008B6A8362CB6AC3620B6B03634B6B436301
:101380008B6B8363CB6BC36340304031403ADBD21D
:1013900030320BD30B6803604B6843608B6883600B
:1013A000CB68C36010301031103AF3D20C3205D341
:1013B00051F8043B40F8043B043AF9D2043208D017
:1013C000D2071CBF11F8013B00F8013B01D30B8889
:1013D00003806046704700BF082A13D38B07B1D043
:1013E00010F00303AED0C3F10403D21ADB071CBF15
:1013F00011F8013B00F8013BA4D331F8023B20F87F
:10140000023B9FE7043AD9D3013A11F8013B00F8B7
:10141000013BF9D20B7803704B7843708B78837063
:10142000604670474FF0FF3C06E000BF4FF0010CF4
:1014300002E000BF4FF0010C4DF804CD4FEA410C23
:101440007FEA6C5C4FEA430C18BF7FEA6C5C1BD0F0
:1014500001B050EA410C0CBF52EA430C91EA030F71
:1014600002BF90EA020F0020704710F1000F91EACE
:10147000030F58BF994208BF90422CBFD8176FEA9C
:10148000E37040F0010070474FEA410C7FEA6C5C6A
:1014900002D150EA013C07D14FEA430C7FEA6C5C71
:1014A000D6D152EA033CD3D05DF8040B704700BF9D
:1014B0008446104662468C461946634600E000BFEB
:1014C00001B5FFF7B7FF002848BF10F1000F01BDBD
:1014D0004DF808EDFFF7F4FF0CBF012000205DF888
:1014E00008FB00BF4DF808EDFFF7EAFF34BF01200D
:1014F00000205DF808FB00BF4DF808EDFFF7E0FFA6
:1015000094BF012000205DF808FB00BF4DF808EDF6
:10151000FFF7CEFF94BF012000205DF808FB00BF5D
:101520004DF808EDFFF7C4FF34BF012000205DF83F
:1015300008FB00BF4FEA410C7FEA6C5C02D150EA25
:10154000013C0AD14FEA430C7FEA6C5C02D152EABB
:10155000033C02D14FF0000070474FF0010070478C
:101560004FEA410212F5001215D211D56FF47873CB
:10157000B3EB625212D94FEAC12343F0004343EA6E
:10158000505311F0004F23FA02F018BF4042704749
:101590004FF00000704750EA013005D111F00040D3
:1015A00008BF6FF0004070474FF00000704700BF69
:1015B00053B94AB9002908BF00281CBF4FF0FF31BA
:1015C0004FF0FF30FFF7B6BEADF1080C6DE904CE69
:1015D000FFF746FDDDF804E0DDE9022304B07047C3
:1015E0002DE9F84305682F4B1D60D0F804802E4B81
:1015F000C3F8008086682D4B1E60DFF8B490D9F8E0
:1016000000702C4B1F60C068FFF7C4F90446C9F88E
:101610000000DFF8A490D9F80010FFF7BDF9C9F871
:1016200000002649FFF772FC10B1244AC9F80020D7
:101630002349214B1868FFF75FFC10B11E4B204A6D
:101640001A6021462846FFF7AFFA05461A4B19687B
:101650004046FFF7A9FA01462846FFF79DF90546DF
:1016600039462046FFF796F901463046FFF79CFAC7
:1016700001462846FFF790F9124B18601249FFF710
:1016800045FC10B10F4B104A1A6010490D4B1868F9
:10169000FFF732FC10B10B4B0C4A1A60094B18686B
:1016A000BDE8F883300A00202C0A0020280A002018
:1016B000240A0020340A00200C0A0020000096436F
:1016C000000096C3380A002000007A4400007AC463
:1016D000016042608360009BC3600023036143613B
:1016E00070470368586A704710B50B4C22460B4987
:1016F0000B4801F0C1FF2068FEF78EFE02460B4644
:10170000084C0949204604F085FD224602210320A9
:1017100000F002FA10BD00BF440A0020400A002079
:101720003C0A0020100A002068CC000810B50B4CC1
:1017300001220821204603F0AEFC012210212046A0
:1017400003F0A9FC00220821204603F0A4FC00229B
:101750001021204603F09FFC10BD00BF000C01408B
:1017600010B5084C00220821204603F094FC012209
:101770001021204603F08FFC01220821204603F0AF
:101780008AFC10BD000C014070B50546002415E030
:1017900001220821124803F07EFC114E0122102183
:1017A000304603F078FC00221021304603F073FC31
:1017B000072C0ED06D00EDB20134E4B2072C0ED828
:1017C00015F0800FE4D100220821054803F063FCE6
:1017D000E3E701220821304603F05DFCEAE770BD33
:1017E000000C014010B50C4C01220821204603F0EA
:1017F00052FC01221021204603F04DFC0821204616
:1018000003F042FC044600B10124002210210248EA
:1018100003F041FC204610BD000C014010B50B4CFC
:1018200000220821204603F036FC01221021204628
:1018300003F031FC00221021204603F02CFC012291
:101840000821204603F027FC10BD00BF000C01401A
:1018500010B5084C01220821204603F01CFC01228F
:101860001021204603F017FC00221021204603F02F
:1018700012FC10BD000C0140F8B5074600242546B7
:1018800006E000221021104803F005FC0135EDB2FE
:10189000072D10D86400E4B20B4E0122102130460F
:1018A00003F0F9FB0821304603F0EEFB0028E8D0F6
:1018B0000134E4B2E5E71FB9FFF7CAFF2046F8BDDF
:1018C000FFF7ACFFFAE700BF000C014000B587B09E
:1018D0000C4B9A6942F008029A619B6903F0080375
:1018E0000193019B18230293032305931123039370
:1018F00002A9054803F0B6FAFFF732FF07B05DF81A
:1019000004FB00BF00100240000C014010B586B07F
:10191000114B9A6942F008029A619B6903F008032F
:101920000193019B03230593112303934FF4407309
:1019300002930A4C02A9204603F094FA01224FF4C4
:101940008071204603F0A7FB01224FF4007120466E
:1019500003F0A1FB06B010BD00100240000C0140D6
:1019600010B50D4C01224FF40071204603F093FB9B
:1019700001224FF48071204603F08DFB00224FF4CA
:101980000071204603F087FB00224FF4807120464F
:1019900003F081FB10BD00BF000C014010B50A4CE4
:1019A00000224FF40071204603F075FB01224FF432
:1019B0008071204603F06FFB01224FF40071204636
:1019C00003F069FB10BD00BF000C014070B5064676
:1019D000002416E080222241124D32404FF4007163
:1019E000284603F058FB01224FF48071284603F08B
:1019F00052FB00224FF48071284603F04CFB013467
:101A0000E4B2072CE6D9074C01224FF4807120463E
:101A100003F041FB00224FF48071204603F03BFBB2
:101A200070BD00BF000C014010B50446FFF798FFE1
:101A30007820FFF7CBFF0020FFF7C8FF2046FFF715
:101A4000C5FFFFF7ABFF10BD10B50446FFF788FFD9
:101A50007820FFF7BBFF4020FFF7B8FF2046FFF7D5
:101A6000B5FFFFF79BFF10BD10B50C4640F0B0006E
:101A7000FFF7DAFF200940F01000FFF7D5FF04F070
:101A80000F00FFF7D1FF10BD38B5002509E0002099
:101A9000FFF7DAFF0134E4B214F0800FF7D001351C
:101AA000EDB2072D05D800212846FFF7DDFF002401
:101AB000F2E738BDF8B51546461E7600F6B24F1E61
:101AC000FF00FFB239463046FFF7CEFF002409E0A1
:101AD000A5F120030F4A02EB0313185DFFF7B4FFD3
:101AE0000134E4B2072CF3D9701C3946C0B2FFF7B9
:101AF000BBFF00240BE0A5F1200304F10802054917
:101B000001EB0313985CFFF79FFF0134E4B2072C4D
:101B1000F1D9F8BD74CC0008F8B507460E46154655
:101B2000002406E0A119C9B23846FFF7C3FF01340B
:101B3000E4B22A5D002AF5D1F8BD08B5002204E020
:101B40000133B3F57A7FFBD30132B2F57A7F01D24C
:101B50000023F6E7FFF7DAFEAE20FFF765FFD5209A
:101B6000FFF762FF8020FFF75FFFA820FFF75CFF11
:101B70003F20FFF759FFD320FFF756FF0020FFF764
:101B800053FF4020FFF750FFA120FFF74DFFC82073
:101B9000FFF74AFFDA20FFF747FF1220FFF744FF65
:101BA0008120FFF741FFCF20FFF73EFFD920FFF74D
:101BB0003BFFF120FFF738FFDB20FFF735FF302038
:101BC000FFF732FFA420FFF72FFFA620FFF72CFF1F
:101BD0008D20FFF729FF1420FFF726FFAF20FFF726
:101BE00023FFFFF751FF08BD38B504460021FFF77A
:101BF0008DF988B1124D01221021284603F04BFACD
:101C000000222021284603F046FA0E4B1D6820468C
:101C1000FFF7B6F9686338BD094D00221021284648
:101C200003F039FA01222021284603F034FA04F1A6
:101C30000040044B1C68FFF7A3F96063EBE700BFAB
:101C400000080140180B002038B504460021FFF7BA
:101C50005DF988B1124D01220421284603F01BFAD8
:101C600000220821284603F016FA0E4B1D68204674
:101C7000FFF786F9A86338BD094D002204212846E4
:101C800003F009FA01220821284603F004FA04F1BE
:101C90000040044B1C68FFF773F9A063EBE700BF3B
:101CA00000080140180B002010B5044C2046FFF737
:101CB0009BFF2046FFF7C8FF10BD00BF0000484350
:101CC00010B5054C0021204604F0C0F80421204640
:101CD00004F0BCF810BD00BF180B00202DE9F04146
:101CE00088B0002404940594069407942A4B9A69BA
:101CF00042F010029A619A6902F010020092009A72
:101D00009A6942F020029A619A6902F020020192D7
:101D1000019A9A6942F004029A619A6902F00402F7
:101D20000292029A9A6942F008029A619B6903F052
:101D300008030393039B194D22463C21284603F0D8
:101D4000AAF9174F22461821384603F0A4F90C23AC
:101D500004930126059606944FF00208CDF81C80E6
:101D600004A9284603F07EF83023049305960696CE
:101D7000CDF81C8004A9284603F074F818230493B6
:101D80001123059306940323079304A9384603F00F
:101D900069F808B0BDE8F081001002400008014079
:101DA000000C014008B50B480B4B03600B4B436024
:101DB00000238360C3604FF480420261436183610A
:101DC000C361036203F06EF900B908BD02F02EFB97
:101DD000FBE700BF480A002000540040801A0600BC
:101DE00010B586B000230293039304930593026811
:101DF000154B9A4201D006B010BD144CA36943F0B4
:101E00000803A361A36903F008030093009B4FF448
:101E100040730293122303930323059302A90C48F2
:101E200003F020F80B4A536843F0E06343F00203E9
:101E30005360E36943F40013E361E36903F40013BF
:101E40000193019BD7E700BF0054004000100240FF
:101E5000000C014000000140F0B583B007462C4B58
:101E6000586801AB04220D21007802F07EFB0028A7
:101E70004BD104469DF80420D21002F01C029DF8BC
:101E80000710C1F301131A438DF800209DF80520B7
:101E9000D21002F01C02C1F381031A438DF8012015
:101EA0009DF80630DB1003F01C0301F003010B4327
:101EB0008DF8023018E007EB8405164B47F8243004
:101EC00004E015492868FEF76FFE286006F1080354
:101ED0000DEB030212F8083C013BDBB202F8083CB0
:101EE000002BEED10134E4B2022C0BD8264604F1CB
:101EF00008036B4413F8083C002BDCD1002347F89F
:101F00002430EFE7002003B0F0BD0720FBE700BF5F
:101F10000C0000207B14AE3E1D5A843F2DE9F04397
:101F200085B08146884601A8FFF796FF00273C460A
:101F30000DE021493046FEF7D5FF20B91F49304654
:101F4000FEF7EEFF10B10123A3401F430134022C22
:101F50002EDCA50059F8240058F82430C01A0028B7
:101F6000B8BF4042FEF7CCFD4FF05E51FEF71CFEBD
:101F7000064605F110030DEB030555F80C5C002136
:101F80002846FEF7A5FF0028D3D129463046FEF7A4
:101F9000BFFE4FF07E51FEF7FDFC20F000400849E7
:101FA000FEF7BEFF0028D1D00123A3401F43CDE799
:101FB000384605B0BDE8F0839A99993E3333733FB4
:101FC000295C0F3E2DE9F04182B007468846374B29
:101FD000586801AB03220D21007802F0C6FA0028F0
:101FE0005FD19DF8043003F01F038DF804309DF895
:101FF000053003F01F038DF805309DF8063003F01F
:102000001F038DF806300026344626E02849FEF7E7
:10201000CBFD04F108030DEB030212F8043C013B75
:10202000DBB202F8043C002BF0D101462846FEF753
:102030006FFE4FF07E51FEF7ADFC20F000401D49D1
:10204000FEF76EFF40B10123A3401E4304E01A488F
:10205000DFE70123A3401E430134022C22DC57F8A2
:10206000240058F82430C01A0028B8BF4042FEF7B8
:1020700047FD4FF05E51FEF797FD054604F108035A
:102080006B4413F8043C002BE1D10C49FEF72AFF06
:102090000028DED10A492846FEF742FF0028DBD09F
:1020A000D7E70726304602B0BDE8F0810C000020DB
:1020B00054E3853F295C0F3E0000C84100002041E9
:1020C0000000D24200B583B0234B93F82430CBB14B
:1020D000A0B102238DF807301F4B586819680DF125
:1020E00007030122C97B007802F00EFA48BB9DF875
:1020F0000720194B5A7403B05DF804FB00238DF8D8
:102100000730E9E7144B9B7AF3B110B1124B5B7CBB
:10211000EBB990B101238DF807300F4B586819685F
:102120000DF107030122C97B007802F0EDF980B9B7
:102130009DF80720084B5A74DDE700238DF807301F
:10214000EBE74FF0FF30D6E74FF0FF30D3E700204A
:10215000D1E74FF0FF30CEE70C000020F0B589B09A
:1021600005460C46164601238DF8143000238DF8E1
:102170001530854B5868196805AB0222897C0078B8
:1021800002F0C2F9002840F0CE81C82002F0F8FD2C
:1021900000238DF814307C4B5868196805AB012278
:1021A000C97B007802F0B0F9002840F0BF81764B7F
:1021B0005868196805AB01224979007802F0A4F942
:1021C000002840F0B681704B5868196805AB0122B1
:1021D000897C007802F098F9002840F0AD816A4BC4
:1021E0005868196805AB0122C97D007802F08CF9A6
:1021F000002840F0A481644B5868196805AB01229F
:102200000979007802F080F9002840F09B810C23C6
:102210008DF814305C4B5868196805AB01220979B8
:10222000007802F071F9002840F08F810F2002F051
:10223000A7FD554B9A6A527A8DF814205868196890
:1022400005AB01228978007802F05EF9002840F0A1
:102250007F814D4B9A6A127A8DF81420586819685C
:1022600005AB01224978007802F04EF9002840F0D1
:102270007281002E79D0444B9B6A9B7A63F01F03D6
:102280008DF81430404B5868196805AB01228979E4
:10229000007802F039F9002840F06081002E6AD001
:1022A000394B9B6ADB7A63F01F038DF81430364B91
:1022B0005868196805AB0122C979007802F024F941
:1022C000002840F04E81002E59D140238DF8143063
:1022D0002D4B5868196805AB01220979007802F086
:1022E00013F9002840F0408178238DF81430264BF4
:1022F0005868196805AB01224979007802F004F9A1
:10230000002840F03481322002F03AFD00238DF89D
:1023100014301D4B5868196805AB012249790078C3
:1023200002F0F2F8002840F02581174B5868196830
:1023300005AB0222897A007802F017F906460028D8
:1023400040F01B819DF814309DF8157047EA032773
:102350000E4BA3FB0737C7F3C7070023AB606B60C7
:102360002B60A360636023605CE0074B9B6A9B7AF1
:102370008DF8143086E718238DF8143097E7C820BD
:1023800002F0FEFCA1E700BF0C000020ABAAAAAA45
:102390009DF814309DF8151041EA032109B2ADF8FB
:1023A00004109DF816309DF8172042EA032212B25D
:1023B000ADF806209DF818009DF8193043EA002377
:1023C0001BB2ADF8083020680144216061680A44FE
:1023D0006260A2681344A3609DF81A309DF81B1038
:1023E00041EA032109B2ADF80C109DF81C309DF8AC
:1023F0001D2042EA032212B2ADF80E209DF81E0005
:102400009DF81F3043EA00231BB2ADF81030286856
:102410000144296069680A446A60AA681344AB6091
:102420000136F6B2BE420ED2554B5868196805AB5C
:102430000C22C97A007802F098F80028A8D04FF052
:10244000FF3009B0F0BD2968832200230804091475
:10245000FEF7B6FD00263A463346FEF7B1FD28608A
:1024600069688322002308040914FEF7A9FD3A468F
:102470003346FEF7A5FD6860A9688322002308049F
:102480000914FEF79DFD3A463346FEF799FDA86014
:102490002068031400041946B3422DDBC00A3A46F3
:1024A000334640EA4150C912FEF78AFD2060606859
:1024B000031400041946002B24DBC00A3A463346B5
:1024C00040EA4150C912FEF77BFD6060A06803142A
:1024D00000041946002B1BDBC00A3A46334640EA8B
:1024E0004150C912FEF76CFDA060002816DDA0F572
:1024F0008030A0600020A4E740F2FF72801843F112
:102500000001CBE740F2FF72801843F10001D4E7ED
:1025100040F2FF72801843F10001DDE700F58030E2
:10252000A06000208DE74FF0FF308AE74FF0FF30CA
:1025300087E74FF0FF3084E74FF0FF3081E74FF03F
:10254000FF307EE74FF0FF307BE74FF0FF3078E75A
:102550004FF0FF3075E74FF0FF3072E74FF0FF307C
:102560006FE74FF0FF306CE74FF0FF3069E74FF057
:10257000FF3066E74FF0FF3063E74FF0FF3060E772
:102580000C0000207C4B9B7A002B00F0D48000B51F
:1025900083B000238DF80730774B586819680DF128
:1025A00007030122C97B007801F0AEFF002840F04C
:1025B000C580714B586819680DF1070301224979EC
:1025C000007801F0A1FF002840F0BB806A4B5868FA
:1025D00019680DF1070301220979007801F094FFD1
:1025E000002840F0B180644B93F82430002B52D087
:1025F0000C238DF80730604B586819680DF10703FC
:1026000001220979007801F07FFF002840F09F80C7
:10261000322002F0B5FBC0238DF80730564B9B7A71
:1026200013F0010F02D0E0238DF80730524B5868A9
:1026300019680DF1070301220979007801F064FFA0
:10264000002840F087804C4B5B7C03B302238DF85D
:102650000730494B586819680DF107030122C97BFF
:10266000007801F051FF002877D100238DF8073062
:10267000414B586819680DF1070301224979007828
:1026800001F042FF00286BD103B05DF804FB00238A
:102690008DF80730DDE704238DF80730364B586896
:1026A00019680DF1070301220979007801F02CFF68
:1026B000002858D1304B9B7C23B92F4B9B7A13F0C9
:1026C000010F30D140238DF807302B4B5868196823
:1026D0000DF1070301220979007801F015FF0028A8
:1026E00044D1322002F04CFB234B5B7CFBB1012335
:1026F0008DF80730204B586819680DF10703012247
:10270000C97B007801F000FF98BB1B4B586853F859
:10271000101B01224979007801F0F6FE0028B3D0A1
:102720004FF0FF30B0E760238DF80730CDE700238E
:102730008DF80730DEE74FF0FF3070474FF0FF3085
:10274000A2E74FF0FF309FE74FF0FF309CE74FF0DC
:10275000FF3099E74FF0FF3096E74FF0FF3093E7F7
:102760004FF0FF3090E74FF0FF308DE74FF0FF3034
:102770008AE74FF0FF3087E70C0000200D4B1B7AF3
:10278000032B13D8DFE803F002060A0EFA230380B6
:10279000002070474FF4FA730380F9E74FF47A731F
:1027A0000380F5E74FF4FA630380F1E70023038029
:1027B000EEE700BF0C000020244B9B7A002B3CD09E
:1027C00000B583B0B0F57A7F33D00BD8FA2813D098
:1027D000B0F5FA7F03D108238DF807300FE04FF0F2
:1027E000FF3023E0B0F5FA6F03D118238DF80730DE
:1027F00005E04FF0FF3019E000238DF80730134B50
:102800001B7A9DF80720B3EBD20F19D00F4B5868F5
:1028100019680DF1070301228979007801F074FE2F
:1028200080B99DF80730DB08084A137203B05DF8E1
:1028300004FB10238DF80730E1E74FF0FF307047BD
:102840000020F3E74FF0FF30F0E700BF0C0000205E
:102850000F4B5B7A032B16D8DFE803F0020C0F1244
:10286000022303700A4BDB7C83B103785B000370A7
:102870000020704704230370F4E708230370F1E796
:1028800010230370EEE74FF0FF30704700207047D1
:102890000C000020234B9B7A002B35D000B583B071
:1028A00002380E2833D8DFE800F008322332323203
:1028B00027323232323232322B0000238DF8073089
:1028C000184B5B7A9DF80720B3EBD20F24D0154B41
:1028D000586819680DF107030122C979007801F0E1
:1028E00013FED8B99DF80730DB080E4A537210E08A
:1028F00008238DF80730E3E710238DF80730DFE772
:1029000018238DF80730DBE74FF0FF3070474FF0AA
:10291000FF3003B05DF804FB0020FAE74FF0FF3012
:10292000F7E700BF0C0000200F4BDB7A013B052BC3
:1029300017D8DFE803F003070A0D1013BC23038048
:102940000020704762230380FAE72A230380F7E719
:1029500014230380F4E70A230380F1E705230380AF
:10296000EEE700230380EBE70C000020234B9B7A6B
:10297000002B3AD000B583B0BB281AD901238DF8BB
:1029800007301E4BDA7A9DF807309A4230D01B4B45
:10299000586819680DF1070301228978007801F061
:1029A000B3FD38BB9DF80720144BDA7203B05DF815
:1029B00004FB612803D902238DF80730E1E72928B9
:1029C00003D903238DF80730DBE7132803D9042349
:1029D0008DF80730D5E7092803D905238DF807308E
:1029E000CFE706238DF80730CBE74FF0FF30704775
:1029F0000020DBE74FF0FF30D8E700BF0C000020DD
:102A0000054B93F8243023B9034BDB890380002066
:102A100070474FF0FF3070470C0000200D4B1B7AC1
:102A2000032B13D8DFE803F002060A0E0A4B0360FB
:102A300000207047094B036000207047084B03607B
:102A400000207047074B0360002070474FF0FF30B5
:102A5000704700BF0C0000200000034300008342C9
:102A60003333034233338341114B5B7A032B1AD840
:102A7000DFE803F0020D11154FF4804303800C4B87
:102A8000DB7C9BB103885B0803800020704741F624
:102A90009C730380F3E74FF480530380EFE74FF418
:102AA00000630380EBE74FF0FF3070470020704772
:102AB0000C000020024B1B7C03700020704700BFFD
:102AC0000C00002070B5174B93F824302BBB00F09E
:102AD000FE04144B9B7A13B3124A167C23401374E2
:102AE000A3420BD04FF0FF3514B90E4B1B7D3BB109
:102AF0000120FFF7E7FA3CB9284670BD0025F3E74F
:102B00000020FFF7DFFAF6E7FFF73CFD0028F3D0DF
:102B1000044B1E744FF0FF35EEE70025ECE74FF055
:102B2000FF35E9E70C0000202E4B93F82430002BF2
:102B300049D0F0B583B005460F461646294B9B7A1F
:102B4000002B43D0274B5868196801AB0222897AC1
:102B5000007801F00AFD00283BD19DF804009DF8A3
:102B6000054044EA0024AC4223D31E4B58684388F6
:102B7000B4EB530F0DD91B4B196801AB0122497CF3
:102B8000007801F0F2FC38BB9DF8043013F0100F10
:102B900014D1144B586819683B46EAB2C97A0078D8
:102BA00001F0E3FCD8B9B4FBF5F4013C347003B098
:102BB000F0BD002333704FF0FF30F8E7FFF7E2FC81
:102BC0006FF00100F3E74FF0FF3070474FF0FF3038
:102BD000EDE74FF0FF30EAE74FF0FF30E7E74FF067
:102BE000FF30E4E70C000020584B9B7C834200F050
:102BF0009C8010B582B00446002844D0534B5868DE
:102C000019680DF1070301220979007801F0ADFC84
:102C1000002840F08C809DF8073023F020038DF8C9
:102C200007304A4B586819680DF1070301220979EA
:102C3000007801F069FC00287CD1032002F0A0F8A4
:102C400002238DF80730414B93F8223013B18223D1
:102C50008DF807303D4B93F823302BB19DF80730AA
:102C600043F030038DF80730384B586819680DF180
:102C700007030122097D007801F046FC002844D0BA
:102C80004FF0FF3044E0314B586819680DF10703ED
:102C900001220979007801F068FC00284DD12B4B06
:102CA0009B7A13F0010F35D09DF8073043F02003D5
:102CB0008DF80730254B586819680DF1070301227C
:102CC0000979007801F020FC002839D1032002F0B6
:102CD00057F81E4B93F822301BB380238DF8073032
:102CE0001A4B93F823302BB19DF8073043F0300393
:102CF0008DF80730154B586819680DF1070301224C
:102D0000097D007801F000FCE8B9104B9C740020AC
:102D100002B010BD9DF8073023F020038DF8073076
:102D2000C8E700238DF80730DAE7002070474FF03E
:102D3000FF30EDE74FF0FF30EAE74FF0FF30E7E715
:102D40004FF0FF30E4E74FF0FF30E1E70C000020E8
:102D50001B4B93F8233083422DD010B582B004462C
:102D600028B330238DF80730154B9B7C2BB19DF891
:102D7000073043F002038DF80730114B93F82230EF
:102D80002BB19DF8073063F07F038DF807300C4BB3
:102D9000586819680DF107030122097D007801F0D8
:102DA000B3FB50B9064B83F8234002B010BD00239B
:102DB0008DF80730D8E7002070474FF0FF30F4E778
:102DC0000C00002028285FD810B582B00446B8B99E
:102DD0000020FFF7BDFF00238DF8043007238DF896
:102DE00005302E4B5868196801AB0222897C0078A7
:102DF00001F08AFB00284AD1284B187502B010BD9B
:102E00000120FFF7A5FF20238DF80430012C26D0E8
:102E1000052C2BD9142C30D802238DF805300A202C
:102E2000FFF7A4FD9DF805309B0143F007038DF8E3
:102E300005301A4B5868196801AB0222897C00786A
:102E400001F062FB30BB154B08229A7200241C7300
:102E500001221A752046FFF735FE2046CEE70023F3
:102E60008DF805300520FFF781FDDBE701238DF8A4
:102E700005300520FFF77AFDD4E703238DF80530F0
:102E80001420FFF773FDCDE74FF0FF3070474FF090
:102E9000FF30B3E74FF0FF30B0E700BF0C00002079
:102EA000264B9B7A002B40D010B582B00446234BB2
:102EB00093F82430002B3BD1204B1B7D33B1431EB4
:102EC0009BB2272B0AD90020FFF77CFF032C0AD9DD
:102ED000B4F57A7F08D94FF47A7405E0C0B2FFF7F1
:102EE00071FF00201FE004244FF47A7090FBF4F48B
:102EF000013C8DF80740114B586819680DF1070324
:102F000001224978007801F0FFFAA0B99DF8070086
:102F1000431C4FF47A7090FBF3F0084BD8814008C3
:102F2000FFF724FD002002B010BD4FF0FF307047C6
:102F30004FF0FF30F7E74FF0FF30F4E70C000020D0
:102F400010B582B0044610F0700F50D001238DF8F8
:102F50000730334B586819680DF107030122897C4B
:102F6000007801F0D1FA00284AD19DF8073003F02B
:102F7000BF032B4A137300238DF8073014F0400F62
:102F800002D104238DF8073014F0200F05D19DF8ED
:102F9000073043F002038DF8073014F0100F05D10D
:102FA0009DF8073043F001038DF8073014F0080F47
:102FB00005D19DF8073043F038038DF80730184BE2
:102FC000586819680DF107030122C97C007801F0E7
:102FD0009BFAD8B90CB1082C1ED1114B9C7200245D
:102FE0001C75322001F0CCFE204602B010BD18B195
:102FF00000238DF80730ACE740238DF80730A8E7B1
:10300000074B00229A724FF0FF30EEE7044B00228C
:103010009A724FF0FF30E8E70020FFF799FEDCE7F7
:103020000C00002010B582B080238DF80030624B78
:10303000586819686B460122897C007801F064FAAF
:10304000002840F09480642001F09AFE00238DF85F
:103050000030594B586819686B460122897C00780A
:1030600001F052FA002840F08580534B58681968E7
:103070006B460622897D007801F077FA00287CD122
:103080009DF805309B0003F004039DF803205200D7
:1030900002F0020213439DF9012002F001021343E2
:1030A0004CD0012B46D0022B6AD1434B0022DA745C
:1030B000414BFF229A721A725A72DA724FF6FF71FE
:1030C000D9811A749A7401221A7383F8222000227B
:1030D00083F823205A751A75C3F81620C3F81A20EE
:1030E000C3F81E2083F8242083F82520DA844FF4C7
:1030F000FA60FFF761FB00284BD10220FFF7CAFB03
:10310000002849D12A20FFF731FC002847D132207E
:10311000FFF7C6FE002845D1FFF7D4FC002844D1B4
:10312000FFF762FD0446002842D1FFF709FF204661
:1031300002B010BD204B0122DA74B9E71E4B58686B
:1031400019686B460122C978007801F00EFAD0B9EF
:103150009DF8003013F00F0318D0042B03D0164B4A
:103160000022DA74A4E7144B0122DA74A0E74FF0CE
:10317000FF34DCE74FF0FF34D9E74FF0FF34D6E7F8
:103180004FF0FF34D3E74FF0FF34D0E74FF0FF3478
:10319000CDE74FF0FF34CAE74FF0FF34C7E74FF0F9
:1031A000FF34C4E74FF0FF34C1E74FF0FF34BEE710
:1031B0004FF0FF34BBE700BF0C0000203AB370B5FE
:1031C00082B00C461646194B9B7A1BB3030A8DF846
:1031D0000430C0B28DF805000844144B5D686B895B
:1031E00098421ADC114B196801AB0222097E28783B
:1031F00001F08AF9A0B90D4B586819683346E2B25C
:10320000497D007801F080F968B902B070BD4FF0D7
:10321000FF3070474FF0FF30F7E74FF0FF30F4E733
:103220004FF0FF30F1E74FF0FF30EEE70C000020E9
:103230003AB370B582B00C461646194B9B7A1BB355
:10324000030A8DF80430C0B28DF805000844144B11
:103250005D686B8998421ADC114B196801AB022238
:10326000097E287801F050F9A0B90D4B586819680B
:103270003346E2B2497D007801F077F968B902B0CF
:1032800070BD4FF0FF3070474FF0FF30F7E74FF061
:10329000FF30F4E74FF0FF30F1E74FF0FF30EEE79B
:1032A0000C0000202DE9F04F87B09A46294B93F887
:1032B0002530002B3CD107468846914600293AD05C
:1032C0000024BC421BD23E1B102EA8BF1026B5B254
:1032D00008EB040B5A4629462046FFF76FFF68BBF0
:1032E00002AA29462046FFF7A3FF50BB2A4602A99F
:1032F000584602F009FF38BB2C44A4B2E1E74FEA7C
:1033000019238DF804308DF80590124B5868196810
:1033100001AB0222897E007801F0F6F8B8B90D4BB6
:10332000012283F82520A3F826A007B0BDE8F08F7E
:103330004FF0FF30F9E74FF0FF30F6E74FF0FF3086
:10334000F3E74FF0FF30F0E76FF00100EDE74FF0EB
:10335000FF30EAE70C000020234B93F8243083422F
:103360003CD030B583B018B31F4B93F82530002BF9
:1033700036D00020FEF7A6FE0020FFF735FC1A4DE0
:10338000E88CFFF78DFD00248DF8074068680DF18B
:10339000070301222321007801F0B6F8012085F807
:1033A0002400FEF78FFEFFF7EDF8204603B030BD96
:1033B0000020FEF787FE0C4D2B7C8DF807306868E7
:1033C0000DF1070301222321007801F09DF800246C
:1033D00085F82440FFF7D6F82046E7E7002070473D
:1033E0004FF0FF30E2E700BF0C0000202DE9F04174
:1033F00088B005460E463D4B93F82470FFB901A8EE
:10340000FFF7BCF90DF10700FFF722FA6846FFF756
:103410008BFA0DF10200FFF7F3FA344B93F80A80B0
:103420000DF10600FFF746FB0024012C0CDC002206
:1034300031462846FEF792FE30B10134F5E7002010
:10344000FFF78AFF0127DAE7022C1FD00024012CA6
:1034500007DC012202A905A8FEF780FE08B10134AD
:10346000F5E7022C14D002A93046FEF757FDC6B28C
:1034700005A92846FEF7A6FD10F0FF0F04D0002492
:103480003EB944F0020404E00124F9E7002400E01E
:103490000024164BFF221A725A72DA724FF6FF712D
:1034A000D9819A721A7401221A73BDF80400FFF7C9
:1034B00083F99DF80700FFF7EDF9BDF80000FFF76D
:1034C00055FABDF80200FFF7EBFC4046FFF738FD68
:1034D0009DF80600FFF7F6FA1FB9204608B0BDE8D0
:1034E000F0810120FFF738FFF7E700BF0C00002054
:1034F00010B588B002A905A8FFF778FF032802D00D
:10350000012008B010BD01A8FFF788FA019C0598BA
:10351000FDF7F6FA2146FDF747FBFDF70BFD059099
:103520000698FDF7EDFA2146FDF73EFBFDF702FD9B
:1035300006900798FDF7E4FA2146FDF735FBFDF705
:10354000F9FC079005A800F04BFA0DF10200FFF717
:103550008BFABDF80220029B02FB03F30293039B4C
:1035600002FB03F30393049B02FB03F3049302A8FF
:1035700000F0BEFA0020C4E790F90030002B01DD16
:10358000002070470FDB90F90130002B01DD012096
:1035900070470ADB90F90230002B08DC01DB0720C2
:1035A00070470620704704207047052070470220AE
:1035B000704738B50546FFF7DFFF0446E81CFFF704
:1035C000DBFF44EAC00424B2A81DFFF7D5FF44EA9C
:1035D000801080B238BD704708B5FEF777F9FFF765
:1035E00021FDB8BB7820FFF7ABFC10F0FF0F01D036
:1035F000012030E07820FFF765FA10F0FF0F2BD1A3
:103600006420FFF74DFC10F0FF0F27D100F036F9D2
:1036100010F0FF0F24D11648FFF7CBFF00F03AF966
:1036200010F0FF0F1ED140F2731000F0F9FC10F003
:10363000FF0F19D1642000F0D5FA10F0FF0F15D15B
:10364000FFF756FF0120FFF787FE10F0FF0002D0C2
:10365000092000E00A2008BD0220FCE70320FAE769
:103660000420F8E70520F6E70620F4E70720F2E754
:1036700000000020000000002DE9F04F8FB006464A
:10368000029193460DF1210301930DF12203009362
:103690000DAB04AA09A90BA800F0CEFD002840F04C
:1036A000C780BDF8223013F4807F00F0C3800498F7
:1036B000FDF726FA4FF04251FDF776FA824605985B
:1036C000FDF71EFA4FF04251FDF76EFA05460698D7
:1036D000FDF716FA4FF04251FDF766FA04460798D7
:1036E000FDF70EFA4FF04251FDF75EFA07464FF034
:1036F00040412846FDF758FA81463946FDF754FA0D
:10370000804651465046FDF747F903902146FDF7A4
:103710004BFA01464046FDF73FF9FCF77DFE08F005
:1037200007FD45A3D3E90023FCF7CEFEFDF7DEF845
:10373000306021462046FDF72FF980463946FDF7D7
:1037400033FA064629460398FDF72EFA014630461D
:10375000FDF722F9064629464846FDF725FA814637
:1037600021464046FDF720FA01464846FDF712F98A
:103770004FF07E51FDF710F9FCF74EFE804689466A
:103780003046FCF749FE42464B4608F0F9FC2AA3B6
:10379000D3E90023FCF798FEFDF7A8F8029B186018
:1037A00021462846FDF700FA064639465046FDF701
:1037B000FBF901463046FDF7EFF80146FDF7ECF85E
:1037C000064651465046FDF7EFF980462946284601
:1037D000FDF7EAF901464046FDF7DEF805462146C9
:1037E0002046FDF7E1F901462846FDF7D3F80446E7
:1037F00039463846FDF7D8F901462046FDF7CAF8A4
:10380000FCF70AFE04460D463046FCF705FE22464C
:103810002B4608F0B5FC08A3D3E90023FCF754FEBF
:10382000FDF764F8CBF8000000200FB0BDE8F08F82
:103830000120FAE70220F8E76666666666A64C4055
:1038400038B50446C578437813F0010F09D005F068
:103850003F00C00805F007010131074B1B6803B1A9
:103860009847637813F0080F04D0034B5B680BB1E3
:10387000A8099847002038BD9C0A002008B5C82335
:103880004FF48062024940F6F630FFF70BFD08BDA9
:10389000ECD2000810B586B004464C4B1B68ADF85E
:1038A0000C301B0C8DF80E30494B1B68ADF80830FE
:1038B0001B0C8DF80A30474B1B68ADF804301B0C0D
:1038C0008DF80630444B1B68ADF800301B0C8DF8AA
:1038D000023000F0030101F118030DEB030111F8B0
:1038E0000C3C8DF81430C0F3C10202F118030DEB4B
:1038F000030212F80C3C8DF81530C0F38113183315
:103900006B4413F80C0C8DF8160011F8101C8DF890
:10391000101012F8102C8DF8112013F8103C8DF8AF
:10392000123005AA032140F22640FFF747FC002889
:1039300040D104AA032140F22A40FFF73FFC0028AF
:103940003BD1019BADF814301B0C8DF81630009B59
:10395000ADF810301B0C8DF8123014F0040F05D0A8
:1039600037238DF8143027238DF8103014F0200FF2
:1039700005D057238DF8153047238DF8113014F4F6
:10398000807F05D077238DF8163067238DF81230AD
:1039900005AA03214FF48860FFF710FC80B904AA40
:1039A000032140F23140FFF709FC60B90B4B1C8149
:1039B00006B010BD4FF0FF30FAE74FF0FF30F7E7E9
:1039C0004FF0FF30F4E74FF0FF30F1E7B4D20008DA
:1039D000B8D20008BCD20008C0D200089C0A00205F
:1039E00030B585B0404B1B8903F0030250F822200C
:1039F000019213F0040F01D052420192C3F3C102AD
:103A000050F82220029213F0200F01D0524202926D
:103A1000C3F3811250F82220039213F4807F01D067
:103A200052420392019BD817304AA3FB023102FB9A
:103A300000119B0F43EA810301930299C817A1FB70
:103A4000021502FB0055890F41EA85050295039C8A
:103A5000E017A4FB024102FB0012A40F44EA820417
:103A600003941A0E8DF80020C3F307428DF801204D
:103A7000C3F307228DF802208DF803306A46042133
:103A80004FF47470FFF79AFB40BB2B0E8DF800309B
:103A9000C5F307438DF80130C5F307238DF80230D5
:103AA0008DF803506A4604214FF47570FFF786FBCA
:103AB000B8B9230E8DF80030C4F307438DF80130F8
:103AC000C4F307238DF802308DF803406A460421C1
:103AD0004FF47670FFF772FB05B030BD4FF0FF304A
:103AE000FAE74FF0FF30F7E79C0A002009E3CA022B
:103AF00010B588B004460DF10600FEF7B5FFBDF81D
:103B000006C04FEACC3C364B1A8902F0030354F846
:103B10002330059312F0040F01D05B420593C2F3EA
:103B2000C10354F82330069312F0200F01D05B42FA
:103B30000693C2F3811354F82330079312F4807F65
:103B400001D05B4207930599CA17A1FB0C130CFB2C
:103B50000233890F41EA83010591069AD017A2FB2F
:103B60000C230CFB0033920F42EA83020692079B60
:103B7000DC17A3FB0C300CFB040C9B0F43EA8C03FB
:103B80000793080E8DF80800C1F307408DF809006F
:103B9000C1F307208DF80A008DF80B10110E8DF877
:103BA0000C10C2F307418DF80D10C2F307218DF8F8
:103BB0000E108DF80F201A0E8DF81020C3F3074257
:103BC0008DF81120C3F307228DF812208DF81330E1
:103BD00002AA0C214FF42570FFF7F0FA08B010BDCF
:103BE0009C0A002010B586B00446164B93E80700E7
:103BF00006AB03E90700C82C1AD8C82393FBF4F3DB
:103C0000013B1A0E8DF804208DF8053001AA02211F
:103C100040F21620FFF7D2FA68B903AA0C2140F649
:103C2000C120FFF7CBFA48B9074B9C8106B010BD05
:103C30004FF0FF30FAE74FF0FF30F7E74FF0FF307B
:103C4000F4E700BFC4D200089C0A002070B582B01F
:103C5000044610F0070F00F0AC800846B1F5C86FBD
:103C600000F2AA80FCF748FF5B49FDF751F80546D2
:103C70000DF10300FEF7ECFD9DF80330023B0E2B27
:103C800000F29D80DFE803F0089B2C9B9B9B3C9BF4
:103C90009B9B9B9B9B9B4C004FF08D412846FCF7C8
:103CA00083FFFDF76DF986B24C492846FCF77CFF8F
:103CB000FDF766F980B2330A8DF804308DF805609F
:103CC000030A8DF806308DF8070014F0010F37D184
:103CD00014F0020F48D114F0040F58D1002070E006
:103CE0004FF08C412846FCF75FFFFDF749F986B29B
:103CF0003B492846FCF758FFFDF742F980B2DAE766
:103D00004FF08B412846FCF74FFFFDF739F986B29B
:103D100034492846FCF748FFFDF732F980B2CAE77C
:103D20004FF08A412846FCF73FFFFDF729F986B29C
:103D30002D492846FCF738FFFDF722F980B2BAE793
:103D400001AA02214FF4EA70FFF738FA00283AD1AD
:103D50000DF1060202214FF49270FFF72FFA0028AE
:103D6000B6D04FF0FF302CE001AA02214FF4EC70E6
:103D7000FFF724FA50BB0DF1060202214FF49470B4
:103D8000FFF71CFA0028A6D04FF0FF3019E001AA77
:103D900002214FF4EE70FFF711FAD0B90DF10602CF
:103DA00002214FF49670FFF709FA50B14FF0FF303F
:103DB00007E04FF0FF3004E04FF0FF3001E04FF03C
:103DC000FF3002B070BD4FF0FF30FAE74FF0FF3028
:103DD000F7E74FF0FF30F4E70000484300004046AB
:103DE0000000C045000040450000C04400B583B05D
:103DF00000238DF8073010F0010F02D030238DF82A
:103E0000073010F0020F05D09DF8073043F00C0387
:103E10008DF8073010F0040F05D09DF8073043F0FF
:103E200003038DF807300DF1070201214FF4A47050
:103E3000FFF7C4F903B05DF804FB00B583B020B10F
:103E40000346042802D9042300E00123013B8DF836
:103E500007300DF10702012140F24F10FFF7AEF9D4
:103E600003B05DF804FB000000B583B0094BA3FB71
:103E70000030830A8DF80430C0F387008DF8050008
:103E800001AA02214FF4EF70FFF798F903B05DF833
:103E900004FB00BFCDCCCCCC00B583B0094BA3FB59
:103EA0000030830A8DF80430C0F387008DF80500D8
:103EB00001AA02214FF4ED70FFF780F903B05DF81D
:103EC00004FB00BFCDCCCCCC00B583B00E4B83FB44
:103ED0000023C017C0EBA31000FB01F10B0E8DF8FF
:103EE0000430C1F307438DF80530C1F307238DF883
:103EF00006308DF8071001AA04214FF4AE70FFF7C9
:103F00005DF903B05DF804FBD34D621000B583B0DA
:103F1000084BA3FB00308308800A8DF804008DF85D
:103F2000053001AA02214FF4AD70FFF747F903B045
:103F30005DF804FBCDCCCCCC00B583B0084BA3FB23
:103F400000308308800A8DF804008DF8053001AA3E
:103F500002214FF4AC70FFF731F903B05DF804FBB8
:103F6000CDCCCCCC00B585B068B10D4A01AB07CA49
:103F700003C31A7001AA09214FF49760FFF71EF9D5
:103F800005B05DF804FB074A01AB07CA03C31A700A
:103F900001AA09214FF49760FFF710F9F0E700BF7D
:103FA000D4D20008E0D2000800B583B0B0B1C0237D
:103FB0008DF80430C2238DF80530C4238DF8063007
:103FC000C6238DF8073001AA042140F69820FFF798
:103FD000F5F8FEF7D7FA03B05DF804FB4FF08B332A
:103FE0000193F0E700B583B0B0B120238DF8043021
:103FF00028238DF8053030238DF8063038238DF8CE
:10400000073001AA042140F69E20FFF7D7F8FEF7FB
:10401000B9FA03B05DF804FB4FF0A3330193F0E766
:104020002DE9F04184B0044602238DF80430CA2300
:104030008DF80530E3238DF8063009238DF807301D
:1040400001AA04216820FFF7B9F8A3238DF80430F2
:1040500014F0400800F0B080C0238DF80530C8236C
:104060008DF80630C2238DF8073014F4C07500F0C7
:10407000AB80C4238DF80830CC238DF80930C623DB
:104080008DF80A30A3238DF80B308DF80C308DF8A5
:104090000D3001AA0A2140F6A720FFF78FF814F08F
:1040A000030700F0998020238DF8043001AA012134
:1040B00040F6B620FFF782F814F0200F00F0908051
:1040C0000120FFF74FFFADB114F4807F00F08C802A
:1040D000B2238DF804308B238DF80530B6238DF88C
:1040E00006309B238DF8073001AA042140F6A22058
:1040F000FFF764F814F0010F00F08380F8238DF8C7
:10410000043001AA01214FF40B60FFF757F8FA21A0
:104110000720FFF79BFD0720FFF768FE0120FFF750
:104120008CFE6420FFF7A0FE4FF4FA70FFF7B4FE98
:10413000C8213F48FFF7C8FE2820FFF7E7FE0A2006
:10414000FFF7FAFE14F0020F65D0D9238DF8043082
:1041500001AA012140F23D70FFF730F814F0040F7E
:104160005DD00120FFF720FF14F0100F5BD001207D
:10417000FFF738FF2F4E44F008037381FEF702FA71
:104180000023B373B8F1000F01D00622B2731DB142
:10419000284A937B0633937314F0140F03D0254AF7
:1041A000937B103393731FB1224A937B0433937331
:1041B000002004B0BDE8F081A3238DF805308DF810
:1041C00006308DF8073050E7A3238DF808308DF8BE
:1041D00009308DF80A3055E7D8238DF8043065E7AB
:1041E0000020FFF7BFFE6EE7B0238DF80430802378
:1041F0008DF80530B4238DF8063090238DF8073004
:1042000072E7D8238DF8043001AA01214FF40B6026
:10421000FEF7D4FF96E7D8238DF8043098E7002006
:10422000FFF7C2FEA0E70020FFF7DCFEA2E700BF19
:1042300009E3CA029C0A00202DE9F0478CB006462B
:104240000F4692469846149D00232B80159A04A988
:10425000754B987BFEF768FC002840F0E1808146B2
:10426000714B5B8913F0140F64D09DF810209DF8FA
:104270001100000440EA02609DF8122040EA02208A
:104280009DF813201043CAF800009DF814109DF803
:104290001520120442EA01629DF8161042EA01223A
:1042A0009DF817100A43CAF804209DF818409DF89D
:1042B0001910090441EA04619DF81A4041EA0421F9
:1042C0009DF81B402143CAF808109DF81CC09DF8BA
:1042D0001D40240444EA0C649DF81EC044EA0C24EA
:1042E0009DF81FC044EA0C04CAF80C40001400906A
:1042F0004FEA224CCDF804C0091402912214039213
:104300000CFB0CFC00FB00C001FB010102FB0212D4
:1043100002F17142B2F1007F05D82A8842F480721E
:104320002A80102207E0FEF72DF900232B804FF0A2
:10433000FF396CE0002213F0400F2FD002F1300162
:10434000694411F8204C02F131010DEB010010F825
:10435000201C41EA0421398002F13201694411F83C
:10436000204C02F133010DEB010010F8201C41EA52
:104370000421798002F13401694411F8204C02F1E2
:1043800035010DEB010010F8201C41EA0421B98031
:104390000632D2B2298841F00801298013F4C07F87
:1043A0002FD002F13001694411F8204C02F13101A3
:1043B0000DEB010010F8201C41EA0421318002F1CC
:1043C0003201694411F8204C02F133010DEB010078
:1043D00010F8201C41EA0421718002F13401694483
:1043E00011F8204C02F135010DEB010010F8201CF2
:1043F00041EA0421B1800632D2B2298841F070012D
:10440000298013F0030F06D14046FFF7E4F8484631
:104410000CB0BDE8F08704AB9818FFF711FAF3E78A
:104420004FF0FF39F3E700BF9C0A002072B6FEE7A9
:1044300000B591B02822002106A801F099FE0023C2
:1044400001930293039304930593012206924FF480
:10445000803307930A9202220D920E934FF4E013D9
:104460000F9306A800F012FF80B90F2301930221D9
:104470000291002303934FF480620492059301A8F4
:1044800001F036F920B911B05DF804FBFFF7CEFF5B
:10449000FFF7CCFF08B500F04FFCFFF7C9FFFDF7B1
:1044A0001DFC00F093FA00F0C1FAFDF77BFC00F070
:1044B00079FBFDF742FBFDF7E7FA3C210F4801F0DD
:1044C00033FD3C210E4801F02FFDFDF7F9FB00F014
:1044D00005F9FFF781F80B4C224602210420FDF775
:1044E0001BFB224603210420FDF716FBFDF7DCFB36
:1044F00000F030F9322000F043FCF9E7600B0020B7
:10450000A80B0020E4DE00082DE9F04104460F4628
:1045100015461E46FDF70AF9600000F0FE00FDF7A3
:1045200033F9FDF75FF988B980463846FDF72CF975
:10453000FDF758F94446AC4214D2305DFDF724F93A
:10454000FDF750F948B90134E4B2F4E7FDF708F992
:104550004FF001084046BDE8F081FDF701F94FF04A
:104560000108F7E7FDF7FCF8F4E7F8B506460F4653
:1045700014461D46FDF7DAF8700000F0FE00FDF766
:1045800003F9FDF72FF978B93846FDF7FDF8FDF787
:1045900029F9FDF7CBF8700040F00100C0B2FDF73B
:1045A000F3F8FDF71FF90AE0FDF7DAF8012011E052
:1045B0000020FDF761F92870013CE4B2013534B107
:1045C000012CF5D00120FDF757F92870F4E7FDF72D
:1045D000C7F82046F8BD38B505460C46FDF7A6F8E5
:1045E000D020FDF7D1F8FDF7FDF878B92846FDF7A2
:1045F000CBF8FDF7F7F82046FDF7C6F8FDF7F2F81F
:10460000044638B9FDF7ACF8204638BDFDF7A8F8E8
:104610000124F9E7FDF7A4F80124F5E708B5C10086
:1046200001F0F8011B20FFF7D6FF08BD08B5C10057
:1046300001F0F8011C20FFF7CEFF08BD08B5BB282C
:1046400009D861280CD829280CD813280CD8092897
:104650000CD9052100E001211A20FFF7BCFF08BD9D
:104660000221F9E70321F7E70421F5E70621F3E743
:1046700010B5B0F57A7F04D80446032803D8042483
:1046800001E04FF47A744FF47A7191FBF4F1C9B2FE
:104690000139C9B21920FFF79EFF6008FFF7CEFF6E
:1046A00010BD10B50446FDF741F8D020FDF76CF8B9
:1046B000FDF798F82046FDF767F8FDF793F8FDF74A
:1046C00035F8D120FDF760F8FDF78CF80020FDF7F4
:1046D000D3F80446FDF744F8204610BD08B5FDF7B1
:1046E000F5F880216B20FFF776FF642000F048FB8F
:1046F00000216B20FFF76FFF0320FFF78FFF0020E3
:10470000FFF794FF6420FFF7B3FF00213820FFF785
:1047100062FF00216A20FFF75EFF00212320FFF7E0
:104720005AFF80213720FFF756FF7520FFF7B9FFAA
:10473000682801D0012008BD01216B20FFF74BFF45
:1047400000216C20FFF747FF6420FFF791FF002056
:10475000F1E700002DE9F04F83B0444CDFF810B1D1
:10476000DFF810A1444F009723465A46514643486C
:10477000FCF7AEFFDFF80891DFF80881424D002614
:10478000009623464A4641462846FCF7A1FF00977B
:1047900023465A4651463D48FCF79AFFDFF8F0A001
:1047A000009623464A4641465046FCF791FF394859
:1047B000FCF797FF00F164083748FCF792FF00F11F
:1047C0006404DFF8D8B0DFF8D8904246594648462E
:1047D00001F020FD4A4603210120FDF79DF9224604
:1047E0005946484601F016FD4A4603210220FDF7CE
:1047F00093F92C4A1368A8EB030B2B4B1968A4EB15
:104800000109C2F800801C604046FBF7F3FD00225E
:10481000264BFBF783FFFCF769F801461748FCF7C6
:10482000DFFE07462046FBF7E5FD00221F4BFBF7A6
:1048300075FFFCF75BF801461448FCF7D1FEEF600A
:10484000CAF80C005846FCF75BF901462846FCF70D
:10485000C7FE4846FCF754F901465046FCF7C0FE37
:10486000FCF742FF03B0BDE8F08F00BF0AD7233C3E
:10487000CDCCCC3D9A99193F0000BC43AC0A002036
:10488000295C8F3D9A99993FE40A0020C40A0020D0
:10489000FC0A0020600B0020A80B0020E8DE0008C6
:1048A000100A0020DC0A0020E00A00200000594025
:1048B00082B00E4B9A6942F001029A619A6902F045
:1048C00001020092009ADA6942F08052DA61DB69F3
:1048D00003F080530193019B054A536823F0E06382
:1048E00043F00073536002B0704700BF00100240F5
:1048F00000000140FEE7FEE7FEE7FEE7FEE7704747
:104900007047704708B500F029FA08BD01207047CC
:1049100008B501F0CFFB162303604FF0FF3008BD50
:1049200008B54FF0FF31FFF7F3FFFEE770B50C4617
:104930001646002506E0AFF30080214601F8010B82
:1049400001350C46B542F6DB304670BD70B50C46FD
:104950001646002504E014F8010BAFF30080013582
:10496000B542F8DB304670BD4FF0FF3070474FF472
:1049700000534B60002070470120704700207047B3
:1049800010B503460C4A0D490D48006840B10C486B
:1049900000680344521A934206D8094A136010BDB6
:1049A0000748084C0460F2E701F084FB0C23036025
:1049B0004FF0FF30F3E700BF00500020000400007C
:1049C000140B0020400C00207047000000B58DB093
:1049D0002422002103A801F0CBFB002301930293C2
:1049E00011484FF080420260436083604FF6FF72CF
:1049F000C26003618361012303930593099303A9B3
:104A000001F08EF850B900230193029301A90648E2
:104A100001F0F0FA28B90DB05DF804FBFFF706FDD0
:104A2000F1E7FFF703FDF6E7600B002000B58DB05E
:104A30002422002103A801F09BFB00230193029391
:104A40001148124A0260436083604FF6FF72C260F1
:104A500003618361012303930593099303A901F083
:104A60005FF850B900230193029301A9064801F0B1
:104A7000C1FA28B90DB05DF804FBFFF7D7FCF1E7E8
:104A8000FFF7D4FCF6E700BFA80B002000040040AD
:104A90000268094B9A4200D0704782B003F5644324
:104AA0009A6942F400629A619B6903F4006301937E
:104AB000019B02B0704700BF002C014000B589B0D7
:104AC000002304930593069307930368B3F1804F83
:104AD00005D01D4A93421DD009B05DF804FB03F5D3
:104AE0000433DA6942F00102DA61DA6902F00102A4
:104AF0000092009A9A6942F004029A619B6903F05D
:104B000004030193019B0323049304A90F4800F0BD
:104B1000A9F9E1E70E4BDA6942F00202DA61DA69DB
:104B200002F002020292029A9A6942F004029A6129
:104B30009B6903F004030393039BC023049304A91C
:104B4000024800F08FF9C7E7000400400008014068
:104B50000010024000B587B0002302930393049332
:104B6000059302680D4B9A4202D007B05DF804FB32
:104B700003F564439A6942F004029A619B6903F069
:104B800004030193019B4FF44073029302230393A8
:104B9000059302A9024800F065F9E6E7002C014000
:104BA0000008014010B596B0002412941394149498
:104BB00015941094119409940A940B940C940D94E8
:104BC0000E940F942022214601A801F0D1FA324818
:104BD000324B036048234360846040F2E733C36094
:104BE00004614461846100F043FF00283ED14FF42A
:104BF0008053129312A9284801F09AF8002838D15E
:104C0000254800F061FF002836D10023109311934E
:104C100010A9214801F0EEF9002830D16023099352
:104C200000220A920B920C920D920E920F9209A9F9
:104C3000194801F003F828BB042209A9164800F01E
:104C4000FDFF10BB0023019302930393049305938C
:104C50004FF400520692089301A90F4801F000FAA0
:104C6000B0B90D48FFF776FF16B010BDFFF7DEFBB9
:104C7000BDE7FFF7DBFBC3E7FFF7D8FBC5E7FFF7AF
:104C8000D5FBCBE7FFF7D2FBD6E7FFF7CFFBD9E7A2
:104C9000FFF7CCFBE5E700BF180B0020002C01401C
:104CA000FFF792FE0B480C490C4A002302E0D4584F
:104CB000C4500433C4188C42F9D3094A094C002368
:104CC00001E013600432A242FBD301F0F9F9FFF7CF
:104CD000E1FB704700000020F00900209CE3000881
:104CE000F00900203C0C0020FEE7000010B504464F
:104CF0000E4B18784FF47A73B3FBF0F30C4A10683C
:104D0000B0FBF3F000F09AF868B90F2C01D901203C
:104D10000AE0002221464FF0FF3000F057F8054B23
:104D20001C60002000E0012010BD00BF3C000020FE
:104D3000380000204000002008B5074A136843F0FF
:104D400010031360032000F02FF80F20FFF7CEFFB1
:104D5000FFF7AEFD002008BD00200240034A1168A5
:104D6000034B1B780B441360704700BFF00B00200F
:104D70003C000020014B1868704700BFF00B00207A
:104D800038B50446FFF7F6FF0546B4F1FF3F02D001
:104D9000044B1B781C44FFF7EDFF401BA042FAD3E5
:104DA00038BD00BF3C000020074AD36823F4E0630D
:104DB0001B041B0C000200F4E060034343F0BF63DC
:104DC00043F40033D360704700ED00E000B5194BA9
:104DD000DB68C3F30223C3F1070CBCF1040F28BF47
:104DE0004FF0040C03F1040EBEF1060F18D9033B7B
:104DF0004FF0FF3E0EFA0CFC21EA0C0199400EFA2E
:104E000003F322EA0303194300280BDB0901C9B2AB
:104E100000F1604000F5614080F800135DF804FB8C
:104E20000023E5E700F00F000901C9B2024B195455
:104E3000F4E700BF00ED00E014ED00E00138B0F150
:104E4000807F0BD24FF0E0235861054AF02182F8B1
:104E500023100020986107221A61704701207047D3
:104E600000ED00E070B582B00024A446A6E0804DBD
:104E7000AA4210D007D97F4DAA420CD005F5803543
:104E8000AA4208D013E0A5F58015AA4203D005F583
:104E90007025AA4207D18A68002A58D0012A51D029
:104EA0004361082403E0A5F58015AA42F3D0BEF1C2
:104EB000FF0F4ED80646BEF1FF0F4CD84FEA8C02CA
:104EC00033680F25954023EA050304FA02F21343E1
:104ED00033604B6813F0805F6ED0674B9A6942F085
:104EE00001029A619B6903F001030193019B4FEA60
:104EF0009C02951C614B53F825600CF003039D0048
:104F00000F23AB4026EA03065D4B984229D003F5F8
:104F10008063984200F08E8003F58063984200F031
:104F20008B8003F58063984219D004231AE0CC6883
:104F3000BDE7CC680434BAE7CC680834B7E7CC687E
:104F40000C34B4E703610824B1E70024AFE704247C
:104F5000ADE7061DAFE7ACF108029200B0E703230E
:104F600000E00023AB4033430232444D45F8223089
:104F70004B6813F4801F61D0424A936843EA0E03E2
:104F800093604B6813F4001F5ED03E4AD36843EA37
:104F90000E03D3604B6813F4003F5BD0394A53686B
:104FA00043EA0E0353604B6813F4803F58D0354AF0
:104FB000136843EA0E0313600CF1010C0A6832FA1D
:104FC0000CF353D0012303FA0CF302EA030E33EA85
:104FD0000202F1D14A68122A3FF649AF122A3FF67F
:104FE00066AF01A555F822F0974E00082F4F000834
:104FF000394F00084B4F0008AF4E0008AF4E000875
:10500000AF4E0008AF4E0008AF4E0008AF4E00088C
:10501000AF4E0008AF4E0008AF4E0008AF4E00087C
:10502000AF4E0008AF4E0008AF4E0008334F0008E7
:105030003F4F0008012395E7022393E7114A936845
:1050400023EA0E0393609CE70E4AD36823EA0E031B
:10505000D3609FE70B4A536823EA0E035360A2E72D
:10506000084A136823EA0E031360A5E702B070BD77
:10507000000022100000311000100240000001402A
:1050800000080140000401408368194201D001205A
:105090007047002070470AB101617047090401613F
:1050A00070470000002800F0CC8070B5044690F8EE
:1050B0003D30002B77D0242384F83D3022681368DC
:1050C00023F0010313602268136843F40043136064
:1050D0002268136823F40043136000F0C5FB626884
:1050E0005A4B9A4264D85A4B98428CBF00230123F2
:1050F000002B40F0A8805749A1FB00318B0C25689C
:105100006A6822F03F0242EA91426A6021680A6AB4
:1051100022F03F0266684D4DAE424FD80133134333
:105120000B622168CA6922F44F4222F0FF026668CE
:10513000464B9E424CD8431E7600B3FBF6F3013338
:1051400040F6FC70034278D0C3F30B031343CB61EA
:1051500021680B6823F0C003E269206A024313430D
:105160000B6021688B6823F4034323F0FF0322695B
:10517000E068024313438B602168CB6823F0FF0390
:105180006269A06902431343CB602268136843F04D
:105190000103136000202064202384F83D30206345
:1051A00084F83E0070BD80F83C30FCF719FE82E7C1
:1051B000294B98428CBF0023012399E74FF4967541
:1051C00005FB03F3254DA5FB03539B090133A6E71C
:1051D000A368BBB9451E06EB460CB5FBFCF50135D3
:1051E000C5F30B05B5FA85F56D0945BBC3B90138A3
:1051F00006EB4603B0FBF3F30133C3F30B0343F4B5
:105200000043A3E7451E06EB860C0CEB8C0CB5FBAC
:10521000FCF50135C5F30B05B5FA85F56D09E4E735
:10522000013806EB860303EB8303B0FBF3F3013392
:10523000C3F30B0343F4404388E7042386E70123C9
:1052400084E7012070470120ACE700BFA086010081
:105250007F841E0083DE1B43FF083D00D34D621098
:1052600082B0084B1B68084AA2FB03235B0A00FBC1
:1052700003F3019300BF019B5A1E0192002BF9D149
:1052800002B0704738000020D34D6210002800F0B3
:10529000F18170B582B00446036813F0010F2CD081
:1052A000994B5B6803F00C03042B1DD0964B5B6895
:1052B00003F00C03082B12D06368B3F5803F41D094
:1052C000002B55D103F1804303F504331A6822F40F
:1052D00080321A601A6822F480221A6037E08A4B02
:1052E0005B6813F4803FE7D0874B1B6813F4003FE3
:1052F00003D06368002B00F0BF81236813F0020F16
:1053000075D0814B5B6813F00C0F5FD07E4B5B68F0
:1053100003F00C03082B54D02369002B00F08A8083
:105320007A4B01221A60FFF725FD0546764B1B6874
:1053300013F0020F75D1FFF71DFD401B0228F5D9B0
:1053400003209EE1704A136843F48033136063685E
:1053500043B3FFF70FFD05466B4B1B6813F4003F8B
:10536000CBD1FFF707FD401B6428F5D9032088E166
:10537000B3F5A02F09D0644B1A6822F480321A606A
:105380001A6822F480221A60E1E703F18043A3F552
:105390003C331A6842F480221A601A6842F4803260
:1053A0001A60D4E7FFF7E6FC0546574B1B6813F479
:1053B000003FA2D0FFF7DEFC401B6428F5D9032094
:1053C0005FE1514B5B6813F4803FA5D14E4B1B68E6
:1053D00013F0020F03D02369012B40F04F814A4A9A
:1053E000136823F0F803616943EAC103136023687B
:1053F00013F0080F33D0A369002B5CD0434B01227C
:10540000C3F88024FFF7B6FC05463F4B5B6A13F0F8
:10541000020F21D1FFF7AEFC401B0228F5D9032073
:105420002FE1394A136823F0F803616943EAC103A5
:105430001360DCE7354B00221A60FFF79BFC054642
:10544000314B1B6813F0020FD1D0FFF793FC401BC8
:105450000228F5D9032014E10120FFF701FF23689A
:1054600013F0040F00F09680274BDB6913F0805F88
:1054700034D1254BDA6942F08052DA61DB6903F0FE
:1054800080530193019B0125214B1B6813F4807FFE
:1054900026D0E368012B3DD0002B53D103F180438C
:1054A00003F504331A6A22F001021A621A6A22F022
:1054B00004021A6233E0154B0022C3F88024FFF780
:1054C00059FC0546104B5B6A13F0020FC7D0FFF77B
:1054D00051FC401B0228F5D90320D2E00025D3E778
:1054E0000B4A136843F480731360FFF743FC0646CE
:1054F000074B1B6813F4807FCBD1FFF73BFC801B6D
:105500006428F5D90320BCE00010024000004242AC
:10551000007000405F4A136A43F001031362E368BE
:1055200033B3FFF727FC06465A4B1B6A13F0020FF2
:105530002FD1FFF71FFC801B41F288339842F3D92B
:1055400003209EE0052B09D0524B1A6A22F001027B
:105550001A621A6A22F004021A62E0E74D4B1A6AD4
:1055600042F004021A621A6A42F001021A62D6E795
:10557000FFF700FC0646474B1B6A13F0020F08D0EA
:10558000FFF7F8FB801B41F288339842F3D90320E0
:1055900077E0E5B9E369002B72D03E4A526802F029
:1055A0000C02082A56D0022B17D03B4B00221A6659
:1055B000FFF7E0FB0446374B1B6813F0007F47D032
:1055C000FFF7D8FB001B0228F5D9032059E0314A28
:1055D000D36923F08053D361DCE72F4B00221A6696
:1055E000FFF7C8FB05462B4B1B6813F0007F06D066
:1055F000FFF7C0FB401B0228F5D9032041E0236AD6
:10560000B3F5803F1AD023494B6823F47413226A00
:10561000606A024313434B601F4B01221A66FFF777
:10562000A9FB04461B4B1B6813F0007F0ED1FFF74C
:10563000A1FB001B0228F5D9032022E0154A53687C
:1056400023F40033A1680B435360DCE7002018E02B
:10565000002016E0012B16D00E4B5B6803F480315E
:10566000226A914211D103F47013626A93420ED1FF
:10567000002006E001207047012002E0012000E048
:10568000002002B070BD0120FBE70120F9E70120F6
:10569000F7E700BF00100240000042420F4B5B687A
:1056A00003F00C02082A01D00D487047C3F383426F
:1056B0000C49885C13F4803F0BD0084B5B68C3F344
:1056C0004043094AD35C064A02FB00F0B0FBF3F00A
:1056D0007047064B03FB00F0704700BF001002400C
:1056E00000127A0008DF000818DF000800093D00FA
:1056F000002800F0A08070B50D460446524B1B6890
:1057000003F007038B420BD24F4A136823F00703C1
:105710000B431360136803F007038B4240F08D8046
:10572000236813F0020F17D013F0040F04D0474A78
:10573000536843F4E0635360236813F0080F04D008
:10574000424A536843F460535360404A536823F01D
:10575000F003A1680B435360236813F0010F31D0AD
:105760006368012B20D0022B25D0384A126812F032
:10577000020F64D035494A6822F0030213434B609C
:10578000FFF7F8FA0646314B5B6803F00C036268DA
:10579000B3EB820F16D0FFF7EDFA801B41F288338E
:1057A0009842F0D9032045E0284A126812F4003FDD
:1057B000E0D101203EE0254A126812F0007FD9D1E5
:1057C000012037E0204B1B6803F00703AB420AD9E6
:1057D0001D4A136823F007032B431360136803F07B
:1057E0000703AB422DD1236813F0040F06D0174AEC
:1057F000536823F4E063E1680B435360236813F0BC
:10580000080F07D0114A536823F46053216943EA13
:10581000C1035360FFF742FF0C4B5B68C3F30313F4
:105820000B4AD35CD8400B4B18600B4B1868FFF742
:105830005DFA002070BD012070470120FAE70120C9
:10584000F8E70120F6E700BF002002400010024008
:10585000F0DE00083800002040000020014B1868EE
:10586000704700BF3800002008B5FFF7F7FF044B72
:105870005B68C3F30223034AD35CD84008BD00BF72
:105880000010024000DF000870B4036A026A22F0D0
:10589000010202624668826922F073020C6844EADF
:1058A000020523F002028B6813430D4CA04209D07D
:1058B0000B4CA0420DD0466085614A68426303628A
:1058C00070BC704723F00803CA68134323F0040335
:1058D000EEE726F440764A6932438E691643EAE7DA
:1058E000002C014030B4036A026A22F48072026222
:1058F0004568C26922F073020C68224323F40073E6
:105900008C6843EA04230F4CA04209D00D4CA042FE
:105910000ED04560C2614A68C263036230BC704702
:1059200023F40063CC6843EA042323F48063EDE7A7
:1059300025F440554C6945EA04158C6945EA04157F
:10594000E7E700BF002C014030B4036A026A22F48A
:10595000805202624468C26922F4E6420D6842EA5B
:10596000052223F400538D6843EA0533074DA8420E
:1059700006D04460C2614A680264036230BC70476A
:1059800024F480444D6944EA8514F2E7002C014078
:1059900010B4036A046A24F001040462846924F0E8
:1059A000F00C4CEA021223F00A030B4382610362FB
:1059B00010BC704710B4036A046A24F01004046237
:1059C000846924F4704C4CEA023223F0A00343EAC9
:1059D00001138261036210BC7047836823F0700377
:1059E0000B4343F0070383607047704703681F4A07
:1059F00090420AD0B0F1804F07D0A2F59432904285
:105A000003D002F58062904203D123F070034A680C
:105A10001343164A90420AD0B0F1804F07D0A2F546
:105A20009432904203D002F58062904203D123F475
:105A30004073CA68134323F080034A691343036029
:105A40008B68C3620B688362084B98420AD00123BB
:105A50004361036913F0010F03D0036923F00103CD
:105A6000036170470B690363F1E700BF002C01403D
:105A700040B310B5044690F83D30F3B1022384F8EA
:105A80003D30214651F8040BFFF7B0FF012384F8A5
:105A9000463084F83E3084F83F3084F8403084F853
:105AA000413084F8423084F8433084F8443084F83C
:105AB000453084F83D30002010BD80F83C30FEF7C2
:105AC000E7FFDBE70120704740B310B5044690F8CC
:105AD0003D30F3B1022384F83D30214651F8040BE8
